:02000000AB282B
:10000600710DF80DF90D7408F8027508031C750FCB
:10001600F902F00DF10D0F30FC00710DF80DF90D20
:100026007408701C1C28F8027508031C750FF90269
:100036002128F80775080318750FF907F00DF10D5B
:10004600FC0B102870182D287408F807750803187B
:08005600750FF9070000080016
:0E005E008312031321088A0020088200080084
:10006C002F208A110A128000840AA00A0319A10AFF
:08007C00F003031D3628080003
:10008400831203137408003A031D51287508003ABB
:10009400031D5128FF30F0007F30F1000800831267
:1000A4000313FD01F901F801710870040319003408
:1000B40071087506FA00FA1BFD09FB01F51F672894
:1000C400F409F509F40A0319F50AF11F6E28F00979
:1000D400F109F00A0319F10A71087504FA00FA1B10
:1000E400832803207B189628FD1F0034F009F109AA
:1000F400F00A0319F10AF809F909F80A0319F90AC7
:100104000034F51F9228F11B8E287108F90070083D
:10011400F800F101F0017628F101F001F00A003451
:10012400F109F009FB0A7328F80A0319F90A74089B
:100134007802031D762875087902031D7628F901D3
:10014400F801F00A0319F10AF11F76280000FF34C0
:020154000800A1
:1001560083120313A201A301873083168100A03006
:100166008B00870183128701831688018312880119
:10017600FF30831686008312861BC228BE28A20A79
:100186000319A30A0230F4000030F5002208F0003B
:100196002308F10042207808F0007908F100701871
:1001A600D6280710D72807140630FB001330FC00AA
:1001B600AD30FD00FD0BDD28FC0BDD28FB0BDD283B
:1001C600000000000230F4000030F5002208F000C4
:1001D6002308F10042207808F0007908F100701831
:1001E600F6288710F72887140630FB001330FC002A
:1001F600AD30FD00FD0BFD28FC0BFD28FB0BFD289B
:10020600000000000230F4000030F5002208F00083
:100216002308F10042207808F0007908F1007018F0
:1002260016290711172907150630FB001330FC00A5
:10023600AD30FD00FD0B1D29FC0B1D29FB0B1D29F7
:10024600000000000230F4000030F5002208F00043
:100256002308F10042207808F0007908F1007018B0
:1002660036298711372987150630FB001330FC0025
:10027600AD30FD00FD0B3D29FC0B3D29FB0B3D2957
:10028600000000000230F4000030F5002208F00003
:100296002308F10042207808F0007908F100701870
:1002A60056290712572907160630FB001330FC00A3
:1002B600AD30FD00FD0B5D29FC0B5D29FB0B5D29B7
:1002C600000000000230F4000030F5002208F000C3
:1002D6002308F10042207808F0007908F100701830
:1002E60076298712772987160630FB001330FC0023
:1002F600AD30FD00FD0B7D29FC0B7D29FB0B7D2917
:10030600000000000230F4000030F5002208F00082
:100316002308F10042207808F0007908F1007018EF
:1003260096290713972907170630FB001330FC00A0
:10033600AD30FD00FD0B9D29FC0B9D29FB0B9D2976
:10034600000000000230F4000030F5002208F00042
:100356002308F10042207808F0007908F1007018AF
:10036600B6298713B72987170630FB001330FC0020
:10037600AD30FD00FD0BBD29FC0BBD29FB0BBD29D6
:0803860000000000C228C62996
:02400E004A2F37
:00000001FF
