:020000006D2968
:0E00060083120313E601E701E801E901080097
:1000140083120313EA01EB010130EC000030ED0020
:020024000800D2
:10002600013083120313EA000030EB00EC01ED010E
:020036000800C0
:0E00380083120313EA01EB01EC01ED01080055
:10004600013083120313E6000030E700E801E901FE
:020056000800A0
:0E0058008312031321088A002008820008008A
:100066008312031348084904031D40284A084B0419
:10007600031940280130F0004128F0010030F1005A
:02008600080070
:100088002C208A110A128000840AA00A0319A10AE6
:08009800F003031D44280800D9
:1000A00083120313420884000008F00070185A28D5
:1000B00008105B28081402304207840000186228E8
:1000C00088106328881404304207840000186A28C6
:1000D00008116B28081506304207840000187228A2
:1000E00088117328881508304207840000187A2880
:1000F00008127B2808160A3042078400001882285C
:100100000712832807160C304207840000188A283B
:1001100087128B2887160E30420784000018922819
:1001200007109328071410304207840000189A28FB
:1001300087109B2887141230420784000018A228D9
:100140000711A32807151430420784000018AA28B5
:080150008711AB288715080098
:10015800163083120313F3005830F2004230F100D6
:10016800710884000008F00072088400700880009C
:10017800F20AF10AF303031DB42823201630F30012
:100188005830F2004230F100710884000008F00095
:100198007208840070088000F20AF10AF303031D54
:0601A800C8280A2008002F
:1001AE008312031348084904031DE4284A084B042C
:1001BE00031DE4280130F000E528F0010030F100C5
:0201CE00080027
:1001D000163083120313F3005830F2004230F1005E
:1001E000710884000008F000720884007008800024
:1001F000F20AF10AF303031DF02823201630F3005E
:100200005830F2004230F100710884000008F0001C
:100210007208840070088000F20AF10AF303031DDB
:0602200004291320080070
:10022600163083120313F3005830F2004230F10007
:10023600710884000008F0007208840070088000CD
:10024600F20AF10AF303031D1B2903201630F300FB
:100256005830F2004230F100710884000008F000C6
:100266007208840070088000F20AF10AF303031D85
:060276002F291C200800E6
:10027C0083120313420884000030861B0130800077
:10028C00840A8001023042078400003006180130D5
:10029C008000840A800104304207840000308618F4
:1002AC0001308000840A800106304207840000304F
:1002BC00061901308000840A80010830420784004E
:0E02CC000030861901308000840A800108008D
:1002DA0083120313AC01AD01AE01AF01B001B1014C
:1002EA00B201B301B401B501B601B701B801B90150
:1002FA00BA01BB01BC01BD01BE01BF01C001C10100
:10030A008B01831687018312870183168801831262
:10031A008801FF30831686002C308312C2005020D9
:10032A002230C2003E210130AC000030AD00013065
:10033A00B0000030B1000130B4000030B500163012
:10034A00F3004230F2002C30F100710884000008FA
:10035A00F0007208840070088000F20AF10AF303C0
:10036A00031DAA2913212C30C2005020220823047D
:10037A00031DC3292230C2003E21BB29AC01AD01B5
:10038A00B001B1010130AE000030AF002C30C20024
:10039A0050202230C2003E212C30C20050200A30A8
:1003AA00F3004230F2002230F100710884000008A4
:1003BA00F0007208840070088000F20AF10AF30360
:1003CA00031DDA29D720700871040319012A16308F
:1003DA00F3004230F2002C30F1007108840000086A
:1003EA00F0007208840070088000F20AF10AF30330
:1003FA00031DF229E820432A0A30F3004230F200B2
:10040A002230F100710884000008F00072088400AC
:10041A0070088000F20AF10AF303031D072A332049
:10042A007008710403192E2A1630F3004230F200C4
:10043A002C30F100710884000008F0007208840072
:10044A0070088000F20AF10AF303031D1F2AAC2088
:10045A00432A1630F3004230F2002C30F1007108C2
:10046A0084000008F0007208840070088000F20A14
:10047A00F10AF303031D342A1321442ACE29AE01BB
:10048A00AF010130B2000030B3001630F300423041
:10049A00F2002C30F100710884000008F0007208A4
:1004AA00840070088000F20AF10AF303031D502A3F
:0A04BA0013212C30C2005020612AEB
:02400E004A2F37
:00000001FF
