:020000003F2897
:0A0006008312031307118715080089
:0A0010008312031307108710080085
:0A001A008312031307118711080079
:0A002400831203130715871108006B
:0A002E008312031307148710080063
:0600380017201220080051
:06003E001720032008005A
:100044008312031306192B2886192B280130F0007C
:0A0054002C28F0010030F100080034
:10005E008312031306193828861D38280130F00044
:0A006E003928F0010030F10008000D
:0600780008200D20080025
:10007E008730831603138100A0308B008701831213
:10008E0087018316880183128801FF30831686004C
:10009E0083120814081508163C20861B572854286E
:1000AE0008100811881422207008710403196128A1
:1000BE001C206A282F2070087104031968281F203D
:1000CE006A283C206B285A28881088153C206E28F8
:02400E004A2F37
:00000001FF
