:02000000AB282B
:10000600710DF80DF90D7408F8027508031C750FCB
:10001600F902F00DF10D0F30FC00710DF80DF90D20
:100026007408701C1C28F8027508031C750FF90269
:100036002128F80775080318750FF907F00DF10D5B
:10004600FC0B102870182D287408F807750803187B
:08005600750FF9070000080016
:0E005E008312031321088A0020088200080084
:10006C002F208A110A128000840AA00A0319A10AFF
:08007C00F003031D3628080003
:10008400831203137408003A031D51287508003ABB
:10009400031D5128FF30F0007F30F1000800831267
:1000A4000313FD01F901F801710870040319003408
:1000B40071087506FA00FA1BFD09FB01F51F672894
:1000C400F409F509F40A0319F50AF11F6E28F00979
:1000D400F109F00A0319F10A71087504FA00FA1B10
:1000E400832803207B189628FD1F0034F009F109AA
:1000F400F00A0319F10AF809F909F80A0319F90AC7
:100104000034F51F9228F11B8E287108F90070083D
:10011400F800F101F0017628F101F001F00A003451
:10012400F109F009FB0A7328F80A0319F90A74089B
:100134007802031D762875087902031D7628F901D3
:10014400F801F00A0319F10AF11F76280000FF34C0
:020154000800A1
:1001560083120313A201A301873083168100A03006
:100166008B00870183128701831688018312880119
:10017600FF30831686008312861BC228BE28A20A79
:100186000319A30A0230F4000030F5002208F0003B
:100196002308F10042207808F0007908F100701871
:1001A600D6280710D72807141A30FC00F830FD00AF
:1001B600FD0BDB28FC0BDB2800000230F4000030CE
:1001C600F5002208F0002308F10042207808F0002C
:1001D6007908F1007018F1288710F22887141A3070
:1001E600FC00F830FD00FD0BF628FC0BF62800009D
:1001F6000230F4000030F5002208F0002308F10078
:1002060042207808F0007908F10070180C290711CF
:100216000D2907151A30FC00F830FD00FD0B1129D9
:10022600FC0B112900000230F4000030F500220812
:10023600F0002308F10042207808F0007908F10068
:10024600701827298711282987151A30FC00F830DD
:10025600FD00FD0B2C29FC0B2C2900000230F400BC
:100266000030F5002208F0002308F100422078084B
:10027600F0007908F1007018422907124329071681
:100286001A30FC00F830FD00FD0B4729FC0B47290E
:1002960000000230F4000030F5002208F0002308C8
:1002A600F10042207808F0007908F10070185D2905
:1002B60087125E2987161A30FC00F830FD00FD0B08
:1002C6006229FC0B622900000230F4000030F500C0
:1002D6002208F0002308F10042207808F00079088F
:1002E600F100701878290713792907171A30FC00CE
:1002F600F830FD00FD0B7D29FC0B7D290000023046
:10030600F4000030F5002208F0002308F100422036
:100316007808F0007908F10070189329871394295A
:1003260087171A30FC00F830FD00FD0B9829FC0BEE
:0803360098290000C2289E294D
:02400E004A2F37
:00000001FF
