:02000000F229E3
:10000600710DF80DF90D7408F8027508031C750FCB
:10001600F902F00DF10D0F30FC00710DF80DF90D20
:100026007408701C1C28F8027508031C750FF90269
:100036002128F80775080318750FF907F00DF10D5B
:10004600FC0B102870182D287408F807750803187B
:08005600750FF9070000080016
:10005E00831203137408003A031D3E287508003AF4
:10006E00031D3E28FF30F0007F30F10008008312A0
:10007E000313FD01F901F80171087004031900342E
:10008E0071087506FA00FA1BFD09FB01F51F5428CD
:10009E00F409F509F40A0319F50AF11F5B28F009B2
:1000AE00F109F00A0319F10A71087504FA00FA1B36
:1000BE00702803207B188328FD1F0034F009F109F6
:1000CE00F00A0319F10AF809F909F80A0319F90AED
:1000DE000034F51F7F28F11B7B287108F90070088A
:1000EE00F800F101F0016328F101F001F00A00348B
:1000FE00F109F009FB0A6028F80A0319F90A7408D5
:10010E007802031D632875087902031D6328F9011F
:10011E00F801F00A0319F10AF11F63280000FF34F9
:02012E000800C7
:0E0130008312031327088A00260882000800A5
:10013E00803083120313F000803054067002031DCA
:10014E00AA285308003C0318DE282008013EF000C0
:10015E0000300318013E2107F1005308F400540843
:10016E00F5002F207808F0007908F1007008A00043
:10017E007108A10000307106031DC72800307006FB
:10018E00031DDE282208013EF00000300318013E58
:10019E002307F1000830F4000030F5002F20780816
:1001AE00F0007908F1007008A2007108A30022087F
:0801BE00F0002308F100080025
:1001C6000E3083120313520784008001840A8001D3
:0E01D6001030520784008001840A8001080066
:1001E400123083120313520784008001840A8001B1
:0E01F4001430520784008001840A8001080044
:10020200FF3083120313D300FF30D4009F20700805
:10021200073CF3007108031C013EF401F402730869
:10022200F0007408F100F00DF10D70109830F00735
:1002320002300318013EF1077008A6007108A700FA
:0A02420098208A110A1287000800B4
:10024C00FF3083120313D300FF30D4009F207008BB
:10025C00F2007108F300F20DF30D72107208983E63
:10026C00F00002300318013E7307F1007008A6007D
:0E027C007108A70098208A110A128700080056
:10028A00831203134E084F04031D522950085104C8
:10029A00031952290130F0005329F0010030F1000E
:0202AA0008004A
:1002AC0083120313480884000008F00070186029BA
:1002BC0008106129081402304807840000186829C6
:1002CC0088106929881404304807840000187029A4
:1002DC000811712908150630480784000018782980
:1002EC00881179298815083048078400001880295E
:0802FC00081281290816080010
:10030400831203134E084F04031D8F295008510410
:10031400031D8F290130F0009029F0010030F10015
:020324000800CF
:10032600831203132408D3002508D4009F2048080D
:06033600D20026210800A0
:10033C00831203132408D3002508D4009F204808F7
:0C034C00D200E3204808D200F220080094
:10035800831203132408D3002508D4009F204808DB
:06036800D2000121080093
:10036E0098208A110A128000840AA60A0319A70A85
:08037E00F003031DB72908007C
:1003860083120313480884000030861B0130800066
:10039600840A8001023048078400003006180130C4
:1003A6008000840A800104304807840000308618E3
:1003B60001308000840A800106304807840000303E
:1003C600061901308000840A80010830480784003D
:0E03D6000030861901308000840A8001080082
:1003E400AE2283120313B201B301B401B501B60105
:1003F400B701B801B901BA01BB01BC01BD01BE011D
:10040400BF01C001C101C201C301C401C501C601CC
:10041400C7018B0183168701831287018316880124
:1004240083128801FF308316860032308312C8009D
:1004340056212830C800C3210130B2000030B30077
:100444000130B6000030B7000130BA000030BB0004
:100454003230C8009E213230C800562128082904B1
:10046400031D382A2830C800C321302AB201B30141
:10047400B601B7010130B4000030B5003230C80015
:1004840056212830C800C3213230C80056210A3012
:10049400F3004830F2002830F100710884000008AD
:1004A400F0007208840070088000F20AF10AF30375
:1004B400031D4F2A8221700871040319652A323002
:1004C400C8009321852A0A30F3004830F20028300E
:1004D400F100710884000008F000720884007008BC
:1004E4008000F20AF10AF303031D6B2A4521700808
:1004F40071040319812A3230C800AC21852A3230B4
:10050400C8009E21862A432AB401B5010130B800EF
:100514000030B9003230C8009E213230C800562164
:02052400922A19
:10055C0020308400063083120313F000A830A6006C
:08056C000230A700B7210800CE
:100530002034003428340034083400348834003443
:1005400080340034823400340234003422340034E5
:04055000003400343F
:04055400003400343B
:0405580064340034D3
:02400E004A2F37
:00000001FF
