:0200000067286F
:0A0006008312031307118715080089
:0A0010008312031307108710080085
:0A001A008312031307118711080079
:0A002400831203130715871108006B
:0A002E008312031307148710080063
:0600380017201220080051
:06003E001720032008005A
:100044000630831203132C0784000008F000840A8E
:100054000008F10070087104031D3F2808302C07C4
:1000640084000008F000840A0008F100700871049C
:10007400031D3F280130F0004028F0010030F1005A
:02008400080072
:100086000630831203132C0784000008F000840A4C
:100096000008F10070087104031D602808302C0761
:1000A60084000008F000840A0008F100700871045A
:1000B600031960280130F0006128F0010030F100DA
:0200C600080030
:0600C80008200D200800D5
:1000CE008B01831603138701831287018316880120
:1000DE0083128801FF3083168600831208140815D8
:1000EE0008166420861B7C287928081008118814AD
:1000FE000030861B0130A200A3010030061801302B
:10010E00A400A501003086180130A600A70100301A
:10011E0006190130A800A901003086190130AA0085
:10012E00AB012230AC002220700871040319A12803
:10013E001C20AC282230AC00432070087104031937
:10014E00AA281F20AC286420AD287F288810881587
:04015E006420B02841
:02400E004A2F37
:00000001FF
