:020000002F29A6
:100006000E30831203134C0784008001840A80019A
:0E00160010304C0784008001840A800108002D
:100024001230831203134C0784008001840A800178
:1000340014304C078400013080000030840A8000B2
:020044000800B2
:100046001230831203134C07840001308000003005
:10005600840A800014304C0784008001840A8001E1
:02006600080090
:100068001230831203134C0784008001840A800134
:0E00780014304C0784008001840A80010800C7
:100086000E30831203134C078400013080000030C9
:10009600840A800010304C0784008001840A8001A5
:0200A600080050
:0E00A8008312031321088A002008820008003A
:1000B6008312031348084904031D68284A084B04A1
:1000C600031968280130F0006928F0010030F100BA
:0200D600080020
:1000D80054208A110A128000840AA00A0319A10A6E
:0800E800F003031D6C28080061
:1000F00083120313420884000008F000701882285D
:1001000008108328081402304207840000188A2847
:1001100088108B2888140430420784000018922825
:1001200008119328081506304207840000189A2801
:1001300088119B2888150830420784000018A228DF
:100140000812A32808160A30420784000018AA28BB
:100150000712AB2807160C30420784000018B2289B
:100160008712B32887160E30420784000018BA2879
:100170000710BB2807141030420784000018C2285B
:100180008710C32887141230420784000018CA2839
:100190000711CB2807151430420784000018D22815
:0801A0008711D3288715080020
:1001A800831203134208CC0043204208CC001220DB
:0201B80008003D
:1001BA008312031348084904031DEA284A084B041A
:1001CA00031DEA280130F000EB28F0010030F100AD
:0201DA0008001B
:1001DC00831203134208CC0043204208CC00232096
:0201EC00080009
:1001EE00831203134208CC0003204208CC003420B3
:0201FE000800F7
:1002000083120313420884000030861B01308000F3
:10021000840A800102304207840000300618013051
:100220008000840A80010430420784000030861870
:1002300001308000840A80010630420784000030CB
:10024000061901308000840A8001083042078400CA
:0E0250000030861901308000840A8001080009
:10025E0083120313AC01AD01AE01AF01B001B101C8
:10026E00B201B301B401B501B601B701B801B901CC
:10027E00BA01BB01BC01BD01BE01BF01C001C1017C
:10028E008B018316870183128701831688018312DF
:10029E008801FF30831686002C308312C20078202E
:1002AE002230C20000210130AC000030AD00013020
:1002BE00B0000030B1000130B4000030B5002C3079
:1002CE00C200F7202C30C200782022082304031D20
:1002DE0074292230C20000216C29AC01AD01B0019D
:1002EE00B1010130AE000030AF002C30C2007820DA
:1002FE002230C20000212C30C20078200A30F300D8
:10030E004230F2002230F100710884000008F00043
:10031E007208840070088000F20AF10AF303031DCC
:10032E008B29DD20700871040319A1292C30C2001D
:10033E00EE20C1290A30F3004230F2002230F100E3
:10034E00710884000008F0007208840070088000B4
:10035E00F20AF10AF303031DA7295B20700871044A
:10036E000319BD292C30C200D420C1292C30C20063
:10037E00F720C2297F29AE01AF010130B200003053
:10038E00B3002C30C200F7202C30C2007820CE29CA
:02400E004A2F37
:00000001FF
